:020000040800F2
:100000000000012029A40508ADA40508B582030855
:10001000ADA40508ADA40508ADA4050800000000C6
:10002000000000000000000000000000ADA4050872
:10003000ADA4050800000000ADA4050823C5040810
:10004000ADA40508ADA40508ADA40508ADA4050838
:10005000ADA40508ADA4050841D0040855D0040896
:1000600051D004084DD0040849D004081D73050878
:100070000D730508FD720508ED720508D9720508B3
:10008000C5720508B1720508ADA40508ADA4050840
:10009000ADA40508ADA40508ADA4050845D0040825
:1000A000A16B0508496C0508916B05086D6C050886
:1000B000396C0508296C0508196C05085D7305087D
:1000C000697305084573050851730508ADA4050853
:1000D000ADA40508756B0508696B0508ADA4050896
:1000E0003DD00408ADA40508ADA40508816B050842
:1000F000D56B0508B16B0508F96B05089D720508FD
:10010000ADA40508ADA40508096C0508ADA4050853
:100110005D6B0508516B0508ADA405089F450508F2
:100120008972050875720508617205084D72050827
:100130003972050800000000000000000000000007
:10014000000000000000000000000000055005084D
:100150002572050811720508FD710508ADA4050892
:100160002D73050839730508ADA40508ADA405086D
:10017000ADA40508ADA405080000000000000000C3
:10018000ADA40508ADA40508ADA40508ADA40508F7
:10019000ADA40508ADA4050800000000ADA4050845
:1001A000000000000000000000000000ADA40508F1
:1001B000ADA40508ADA40508000000000000000083
:1001C000000000000000000000000000000000002F
:1001D000000000000000000000000000ADA40508C1
:0801E000809F050001000000F2
:1001E800B04502200208000003001F00D04502208D
:1001F8000112000000017600F045022001180000FD
:1002080000017600104602200119000000011E00BE
:1002180030460220011F000000010D005046022058
:100228000120000000010E0070460220012100009C
:1002380000011E0090460220011C000000010C0075
:10024800B0460220011D000000010E00D046022029
:10025800011E000000010C00F0460220012B0100E5
:100268000001180010470220012300000001480087
:1002780030470220012400000001490050470220B5
:100288000125000000014A007047022001260000F5
:1002980000014B00904702200127000000014C009C
:1002A800B04702200128000000014D00D04702207D
:1002B8000129000000014E00F0470220012A000039
:1002C80000014F0010480220012E00000001140018
:1002D80030480220012F0000000129005048022068
:1002E800013001000001290070480220013101009D
:1002F800000170009048022001320100000128002E
:10030800B0480220022C010000012C00D048022035
:100318000234000000022900F048022001350000E4
:1003280000003C001049022001330000000040009A
:100338003049022001380000000020005049022006
:08034800013900000001290049
:1080000009284FF00103F0B407D903EB83035B00A9
:10801000B0FBF3F2092AF8D84BB30026DFF858C0BA
:10802000ACFB03720D46B0FBF3F4002C03FB140011
:108030004FEAD202D4BF0027012756B94FB9092B06
:108040003E4612D8303405F8014B00232B70F0BCAB
:108050007047092C06F10106CCBF57213021092BAE
:108060000C4405F8014B2946EFD91346D8E70D46D5
:1080700000232B70F0BC7047CDCCCCCCF0B50023E6
:108080000E680DE0BCF1050F17D9BEF1050F18D829
:108090000A2C16D103EB830316F8010B04EB430300
:1080A000A0F13005A0F1610CA0F1410EA0F1370460
:1080B000EFB2092FE6D82C46ECE7A0F157040A2CC2
:1080C000E8D00E601360F0BDDFEDB75A0223B0EECA
:1080D000655A2DE9F04F2DED108B8FB00190049172
:1080E0000D9202910393029B18204FF00009D908CA
:1080F000DA004B0100FB01F428204FEA011B089332
:10810000019B0C9403EB411C00FB01F4CB003020DD
:10811000069407936FF0170300FB01F438204B43DC
:1081200005940CEB030700FB01FA019807EB4116DD
:1081300000F1040EF51805EB4114234403EB41183C
:10814000DCED007A1EED017AD7ED003A77EE276A72
:10815000D5ED004A37EE677AD6ED007A98ED003A11
:10816000D3ED002A33EEA76A73EEE73AD4ED007A36
:1081700034EEA74A74EEE77A72EE834A36EEC48A8A
:1081800076EE846A36EE640A36EE246A72EEC32A0C
:1081900076EE864A76EEC66A4EED014ACCED006A6E
:1081A0009CED016ADEED004A97ED014A74EE866AA5
:1081B00095ED013A34EEC66AD6ED014AD8ED011AC2
:1081C00034EE242A34EE644AD4ED014A33EE241A04
:1081D00073EE644A93ED013A73EE210A33EE613A8D
:1081E00076EEC11A76EE816A32EE601A32EE202AFD
:1081F00076EE820A76EEC26A38EE412ACEED000AA9
:108200009644CCED016A78EE016A9444C5ED006AAB
:1082100071EEC06A84ED002A34EE432A34EE034A3C
:10822000C5ED016A70EE216A73EEE21A1544B0EEF4
:10823000473AC4ED016A73EEA26AF0EE673A14445D
:10824000F0EE462AE6EEA57AE6EEE53AF0EE466A6C
:10825000B0EE646AE2EE652AE2EE256AA1EEA57A46
:10826000A4EE256AB0EE642AA1EEE53AA4EE652AF2
:1082700077EE064A37EE467AC7ED004A88ED007A77
:1082800033EE027A33EE423A86ED007A36EEE77A42
:1082900077EEA67A83ED003A87ED017A1744C8EDB0
:1082A000017A72EEE37A73EEA23A9044C6ED017A57
:1082B0001644C3ED013A134402988144049848459A
:1082C0003FF63EAF072940F2738101980124089BD5
:1082D00003440B93079B03440A93069B03440993AF
:1082E0000BEB00030893059B034407930C9B03448B
:1082F00006930AEB0003059300230398A346034467
:108300000D9800EBC3056FF02F00D5ED001A05EBBB
:10831000C30595ED008A05EBC305D5ED004A05EBD5
:10832000C30595ED009A05EBC305D5ED003A05EBC5
:10833000C305D5ED000A05EBC305D5ED002A00FB0A
:108340000355019895ED011A05EBC30500EBC40A2E
:108350000B98D5ED018A05EBC30500EBC4090A981B
:1083600095ED014A05EBC30500EBC4080998D5ED6E
:10837000019A05EBC30500EBC40E089895ED013A90
:1083800005EBC30500EBC40C079895ED010A05EB5E
:10839000C30500EBC407069895ED012A00EBC4065F
:1083A000059800EBC40501E0F304353FD9ED007AF0
:1083B000D8ED006A9EED007A9AED00AA9CED00BA15
:1083C00036EEC7DA3AEE276A96ED00EA3AEE67AA89
:1083D00076EE877AD7ED006A3BEE267A3BEE66BAF8
:1083E000D5ED006A7EEE26AA36EE47FA36EE076A2B
:1083F00077EEEAEA77EEAA7A3EEE66EA36EE277A7A
:1084000076EE67AA9AED016A8AED007AD9ED017AD3
:10841000D8ED01CA36EE277ADCED016A76EE67BA4E
:10842000DEED017AD6ED01FAD5ED01DA3CEEA76A70
:108430007CEEE7CAD7ED017A36EEA7CA76EEE77A88
:108440007FEEAD6A7FEEEDDA77EE4CFA37EE0CCACE
:1084500036EE667A36EE266A7FEE076A3FEE477A98
:108460003CEE06FA3CEE46CA8AED01FA3FEEEEFA21
:1084700029EE8C6A92447EEEAFEAA9EE2A6A89ED73
:10848000006A2AEEE96A7DEE4EAAA9EE0C6AB0EE09
:108490004ACAAAEE85AAAAEEC5CAF0EE4BAA89ED91
:1084A000016A28EE8F6A9144A8EE266A66EEE86AB1
:1084B000E8EE0F6A8CED006A3CEEED6ACCED016AE5
:1084C00060EE2E6A9444E0EE876A27EE407AA0EED2
:1084D000AE7AC7ED006A7DEE0E6AA6EE85BA87ED2C
:1084E000017A3CEEAD7AF0EE6BCA1744E6EE05BABF
:1084F000E6EEC5AAE6EE45CAB0EE6B6AF0EE67BAE4
:10850000E7EE057AE7EE45BA7AEE276A7AEE677A01
:108510003CEE2B7A3CEE6BAA36EE4BCA3BEE066A7B
:108520003CEEEABA61EE0CBA7AEEACAAE1EEA6BA7B
:1085300066EEC16AE1EE8C6AC8ED00BAC8ED016A68
:1085400062EE066A9044E2EEA76AC5ED006A67EE45
:10855000C26A63EE0B7AE2EE866AE3EE877A27EE72
:10856000437AA3EE8B7AC5ED016A1544CEED007A0D
:1085700064EE2A7AE4EE8A7A8EED017A9644C6EDAC
:10858000007A6AEE447AE4EEAA7AC6ED017A1644DD
:1085900002988344049858453FF608AF0134A1423D
:1085A0007FF4ABAE039BDB009BB2CDE902139AE5EF
:1085B0000FB0BDEC108BBDE8F08F00BF00B50346D7
:1085C00083B03221074A68468DF8001019689B88ED
:1085D0001268CDF80110ADF80530904703B05DF892
:1085E00004FB00BFF01E01201F4B2DE9F0410024C9
:1085F00006465D6800F1070807E0394628461B6813
:108600003C4498474645A4B211D016F8017B284651
:108610007D21A7F17D03012B2B68EED81B689847BD
:108620002B6887F02001E9E7E3B203EB1424FF2C69
:10863000FAD8C4F1FF04E4B2A4F17D03012B2B6846
:1086400005D9214628461B68BDE8F0411847284651
:108650007D211B6898472B6884F0200128461B6801
:10866000BDE8F041184700BFF01E01200A4AD36957
:1086700010B51981002199815169596019684C1C04
:108680001C6008704FF6F671D369526999811968B8
:10869000C3E9002110BD00BFF01E01200A88504030
:1086A00080EA0010C0B2030983EA122343EA0023E0
:1086B00083EAC00008807047064B93F83320012AF4
:1086C00002D1054A1A667047022A0CBF034A044ABF
:1086D000F8E700BFF01E0120000001200A00012081
:1086E00014000120074B03F17602426003F165029A
:1086F0000260242283F8642003685A1C026054221A
:108700001A707047F01E0120F8B500220D464FF692
:10871000FF7302398A420FD3435446191B0A044699
:10872000084F06F8013C14F8011BB86F43F065FFD1
:10873000A642F8D1E8B2F8BD845C01321B1B9BB2A3
:10874000E8E700BFF01E01200B1407B508228DF8E2
:1087500004300B0E60F05F00ADF8021011468DF88A
:10876000053000238DF8010068468DF80020ADF833
:108770000630FFF7C9FF03B05DF804FB062307B519
:1087800060F05F000022ADF8021019468DF801007C
:1087900068468DF80030ADF80420FFF7B5FF03B050
:1087A0005DF804FB034AD36F43F4060343F47C43B0
:1087B000D3677047F01E012030B5014404460A4DCE
:1087C00000208C4200D130BD14F8013B43409A0098
:1087D00082EA43025A40DB0803F0180345FA03F328
:1087E0005340D8B2EDE700BF0007090E00284FF054
:1087F0003C0270B5B8BF4042114E124DB0FBF6F3CB
:1088000005FB03009BB202FB00F494FBF6F20E4E54
:1088100090B296F82A607EB903EB830303EB8303DF
:1088200000EB830305FB02421BB20B804FF47A730B
:1088300092FBF3F24A8070BDC3EB0313F0E700BF75
:1088400080969800806967FFF01E0120014610B5F0
:108850005E290A4CD4F8800009D15D2143F0CDFE99
:108860003E21D4F88000BDE8104043F0C6BE5D292B
:10887000F9D143F0C2FE3D21F3E700BFF01E012015
:10888000024B5E21D3F8800043F0B7BEF01E0120FA
:10889000264B19685B6821F0404222F07F02002AD3
:1088A0000CBF012002204A0748BF0430D90701D578
:1088B0000A3080B29A0701D5143080B2D90501D5AB
:1088C000283080B25A0701D5643080B2190701D52B
:1088D000C83080B29A0602D500F5C87080B2D906B9
:1088E00002D500F57A7080B2DA040FD500F5FA509F
:1088F00080B2990403D500F51C50103080B29A055F
:108900000ED5A0F5C740403880B27047190502D592
:1089100000F5FA60ECE75A06EBD500F57A60E7E778
:108920005B05F2D500F59C402030EDE7000000200B
:10893000002270B511460A24561C08B9084670BDBD
:10894000B0FBF4F5D2B204FB1503A8B292009BB2BF
:10895000934032461943EFE700280E4AB8BF404221
:10896000B0FBF2F330B50C4D3C2405FB030003EBE8
:108970008303604303EB830390FBF2F202EB830378
:1089800005FB02020B804FF47A7392FBF3F24A80EC
:1089900030BD00BF80969800806967FF264A30B4DA
:1089A00092F8843004684B40651C13F0800F4FEA46
:1089B0004303056018BF83F0D5032170DBB213F0C9
:1089C000800F4FEA430318BF83F0D503DBB213F0E7
:1089D000800F4FEA430318BF83F0D503DBB213F0D7
:1089E000800F4FEA430318BF83F0D503DBB213F0C7
:1089F000800F4FEA430318BF83F0D503DBB213F0B7
:108A0000800F4FEA430318BF83F0D503DBB213F0A6
:108A1000800F4FEA430318BF83F0D503DBB213F096
:108A2000800F4FEA430318BF83F0D503DBB282F80F
:108A3000843030BC704700BFF01E0120022803D0F4
:108A4000431E584258417047054B93F8283013B1E4
:108A500010202EF00DBE034B1868C0F38000704745
:108A6000F01E012000000020036800220B4910B412
:108A70008B420FD8591C01601A70094B026803F130
:108A800064015DF8044B42600160521AD3F888001B
:108A900043F0B6BD11F8014B6240E9E7571F0120D2
:108AA000F01E0120014B93F88C007047F01E01204E
:108AB000F0B4464C7B253E21EA2384F89250C82529
:108AC00084F89110013884F8933004F1950204F190
:108AD000CF014D2384F8905084F8945027E0DDB204
:108AE0005BB2002B33DB6B00DDB25BB2002B35DBFE
:108AF0006D00EBB26DB2002D37DB5D00EBB26DB2F5
:108B0000002D39DB5D00EBB26DB2002D3BDB5D006B
:108B1000EBB26DB2002D3DDB5D00EBB26DB25B00E0
:108B2000002DB8BF83F0D5038A42DBB238D010F8ED
:108B3000015F6B4002F8015B13F0800F4FEA4303C3
:108B4000CDD083F0D5056BB2EDB2002BCBDA6D0042
:108B500085F0D5056BB2EDB2002BC9DA6B0083F05E
:108B6000D5035DB2DBB2002DC7DA5B0083F0D5031D
:108B70005DB2DBB2002DC5DA5B0083F0D5035DB2D8
:108B8000DBB2002DC3DA5B0083F0D5035DB2DBB24C
:108B9000002DC1DA5B0083F0D5035DB2DBB2BEE726
:108BA0000B4D402784F8CF30A5F1400684F884307F
:108BB0000FCE0FC50FCE0FC50FCE0FC596E80F0015
:108BC00085E80F0084F81071F0BC7047F01E01209A
:108BD000C01F012070B51F4C0A220023092694F8FB
:108BE0001111651895F812514DBB0BB184F8111194
:108BF00003685A1C02600C221A7003685A1C026037
:108C000000221A7003685A1C02600D22197001EBD1
:108C1000410301EB8301104B194449F07DFD94F8A9
:108C200011310120E218034482F812010922B3FB3A
:108C3000F2F202EBC2029B1A84F8113170BD013AC4
:108C4000D3D00131B1FBF6F303EBC303C91A2B46B2
:108C5000C9B2C6E7F01E01200B20012038B504463A
:108C60000D460A460068FF2157F046F9216829445D
:108C7000216038BD0268511C08B501607F210023C6
:108C800011700268511C01600E211370FFF7E6FF9E
:108C9000012008BD30B5354C85B094F89031012BDA
:108CA00001D005B030BD94F89101022826D0A0F182
:108CB0000100B0FA80F0400948B36368002BF0D19E
:108CC000D4F89421002AECD094F83000032594F8CD
:108CD0002910002892F9040001954FF4614214BF55
:108CE0000825002500921A46002908BF45F0010515
:108CF0002021029527F05AFF6060D2E794F82830CF
:108D0000FBB91B4B1868C0F380000028D5D16268FE
:108D1000002AC6D0D4F89C319A4217D0D4F8A83192
:108D20009A421CD0D4F8B4319A420ED0D4F8C03153
:108D30009A4216D0D4F8CC319A4214D00023636002
:108D4000AFE710202EF094FCB6E7022000EB4000C5
:108D5000002104EB8003D162C3E96711EEE7012033
:108D6000F4E70320F2E70420F0E700BFF01E012043
:108D70000000002038B51A4D6322002195F8DC016F
:108D80004AF03EFEB5F8003204463220333B002163
:108D90000922144D93FBF0F04AF032FEC0F10903B2
:108DA000642000FB0340AB68990784B202D504F548
:108DB0007A74A4B2DA0702D504F5FA64A4B22B6877
:108DC0005B070AD515202EF053FC30B16B6813F405
:108DD000016F02D104F57A64A4B2204638BD00BF09
:108DE000F01E01200000002038B50E4C94F813123C
:108DF00084F80F0204F5037001F03F0101F10A0548
:108E00008B1C083184F80E52254484F8113224F06A
:108E10001FFF85F80A0294F80E32000A1C4484F8F9
:108E20000B0238BDF01E0120C31D2DE9F04703F4ED
:108E3000FC73484D82B00E4600AFEC69ADEB030DFC
:108E400095F834326A69684403F1010CC7F800D020
:108E50002168E8465FFA8CFC03F00F0391427860CA
:108E600085F834C238D1B4F90C2043F010034146E0
:108E7000002A08F10102B8BF43F020033A6001F86C
:108E8000023BD4E9002339609B1A88F801303B6823
:108E9000D4E90012A0EB0309521A5FFA89F95FFACC
:108EA00082FA09F10703CA4503F4FC73ADEB030D25
:108EB00018D34A46684656F0DBFD23684A466946A1
:108EC0004B443846236049F027FC4046B047012018
:108ED0000837BD46BDE8F0870DF101028DF800307E
:108EE0003A60D4E75246684656F0C2FD23685246BF
:108EF000694653443846236049F00EFC6B6921688B
:108F00000020EA69C4E90031127ACB1A5340DBB27F
:108F100085F835322268914212D108B185F8353290
:108F20003B6895F83522591C396000211A70D7E941
:108F300000239B1A012B09DC4046B0470020C7E7FD
:108F4000501C2060012012785340E3E7531C3B6023
:108F50001170ECE7F01E01202DE9F047614C82B062
:108F6000E26900AFD2E900239B1A002B02DD002347
:108F700084F8363294F8363273B95B4A02F18105CF
:108F80002261A56102F19105C4E9AE2202F29112BB
:108F90006561E261C4E9F2550144421CA569E160E2
:108FA000A26002785109012905D000210846FFF787
:108FB0005DFB012043E002F00F0A12F0100232D0F4
:108FC000831C002284F83612A360C31C4678A36079
:108FD0008378AA8122692B8173402A60324484F805
:108FE000D8336A60D5E90032D21AD4E902635FFA55
:108FF00082F99B1B5FFA83F808F10703C14503F46C
:10900000FC73ADEB030D1ED3314642466846464421
:1090100056F02EFD424669462846A66049F07CFB84
:1090200084F8D9A30AE0002B59D094F8D93301333E
:1090300003F00F035345D5D084F8362200200837BB
:10904000BD46BDE8F08731464A4668464E4456F074
:109050000FFD694628464A46A66049F05DFB236934
:1090600000212868C5E9003094F8D8332A68904276
:1090700010D109B184F8D833A368197894F8D8339B
:1090800099424FF0000384F8363209D0B5F9081040
:1090900001208CE7511C2960012112785340E5E73B
:1090A0002169A069C5E90012E16962690B814A6022
:1090B0003A1D8B817B6031F0F7FC013005D1E2690C
:1090C0001368591C116002221A707B680BB10020D2
:1090D0009847E36962691968C3E9002169E718469E
:1090E000ADE700BFF01E0120272101202DE9F34745
:1090F0001F462A4B15460A22B3F9DA431E46B3F837
:10910000DCA394FBF2F4B3F8E023A4B2A2420FD1A3
:10911000B3F8E22352450BD1D3E9FA23B5EB0208A9
:109120001F4A67EB030900234B4508BF424533D272
:109130000368214601905A1C026034221A700368A9
:109140005A1C026000221A7049F00EFB5146019829
:1091500049F00AFB47F6FF71019849F005FB47F615
:10916000FF71019849F000FB47F6FF71019849F043
:10917000FBFA47F6FF71019849F0F6FA01980221CF
:10918000FFF76CFD0120A6F8E043A6F8E2A3C6E9CC
:10919000FA5702B0BDE8F0870020FAE7F01E012080
:1091A00080841E00294AF8B5D368044613F0800372
:1091B0004AD0936813F0020346D0254F97F8DC019C
:1091C000052841D9632888BF6320FFF7B1FB214BF5
:1091D000C5B2D7F8E80190FBF3F080B2FFF7A8FB27
:1091E000B7F8F831C6B24FF4F36013FB00F34FF455
:1091F0007A7093FBF0F342F20F709BB2834298BFF8
:109200001846FFF795FB236881B220465A1C22605E
:1092100017221A7023685A1C226000221A7049F023
:10922000A3FA4FF0FF31204649F08AFA236820461E
:1092300006215A1C22601D7023685A1C22601E7071
:10924000FFF70CFD0120F8BD0020FCE70000002026
:10925000F01E0120A08601004E4AD36813F080035F
:109260002DE9F04F044685B000F09280936813F02A
:10927000020300F08D80484E96F8DC31052B40F259
:109280008780D6F8E00103A9FFF766FBBDF80C0064
:10929000FFF74EFB8346BDF80E000A27FFF748FB99
:1092A00003A940EA0B4BD6F8E401FFF755FBBDF8E4
:1092B0000C00FFF73DFB8246BDF80E00FFF738FBC0
:1092C000D6F8E851354A40EA0A4A85EAE573A3EB45
:1092D000E5732D16B3FBF7F3B3FBF2F002FB10308E
:1092E00025F07F0580B2FFF723FB81B2B6F8FA01C3
:1092F0006DB20191FFF71CFB1FFA80F9B6F800026E
:10930000B0FBF7F0632828BF6320FFF711FBD6F806
:10931000E071D6F8E4315FFA80F8002F204A019915
:10932000D4BF00270127002BCCBF02260026934282
:10933000CCBF042300232268501C00932060162019
:1093400010702268501C206000201070204649F0E8
:109350000BFA5946204649F0F3F95146204649F0A8
:10936000EFF94946204649F0FFF9009B22680120A9
:109370001F43511C3D4321602E4382F80080226828
:1093800046F03806511C2160167005B0BDE8F08F1C
:109390000020FAE700000020F01E0120A086010056
:1093A000FFC99A3B03684FF6FF715A1C10B5026063
:1093B0007E2204461A7003685A1C026000221A704A
:1093C00049F0B4F90B4B93F82E3083B123F040F8F9
:1093D0000146204649F0AAF9204647F6FF7149F0B8
:1093E000A5F920460821FFF739FC012010BD22F025
:1093F000E7FFEDE7F01E0120134BDB68C3F3022308
:1094000010B5C3F107041A1D042C28BF0424062A32
:109410004FF0FF328CBF033B0023A240002821EA1B
:10942000020101FA03F34FEA0313DBB206DB00F19A
:10943000604000F5614080F8003310BD00F00F007F
:10944000024A1354F9E700BF00ED00E014ED00E01C
:1094500008B50D4B4FF47A721B6AB3FBF2F3013B74
:10946000B3F1807F09D2094AF0215360084B83F899
:109470002310002393600723136000214FF0FF3077
:10948000FFF7BAFF002008BD0000012010E000E057
:1094900000ED00E02E4B002210B5C3F808244CF27A
:1094A0005034D3F80C042B4AD168C90341D4D16895
:1094B00011F4F97144D0D268900705D5D3F8082487
:1094C00042F02002C3F80824224AD168C90605D513
:1094D000D3F8081441F01001C3F80814D2689206BA
:1094E00005D5D3F8082442F00802C3F80824194A25
:1094F000D1684C0605D5D3F8081441F00401C3F82F
:109500000814D268100605D5D3F8082442F00202E8
:10951000C3F808240F4AD168C90505D5D3F8081443
:1095200041F04001C3F808144FF4F9730120D360EF
:1095300010BDD3F80C14091AA142B5D90320F7E7DE
:10954000D06810F00100F3D001230846D360EFE7A4
:10955000F01E0120003C0240026838B504469069C4
:1095600010F010002ED0184D936913F020031CD07A
:10957000102320252046D361D5614EF031FF2268AB
:109580000120536823F0FF7323F48B3323F4FF731C
:1095900023F00103536004236364002384F84150E3
:1095A00084F8403084F842300CE0D5F80C04401ABE
:1095B0000A28D9D92022032084F8403084F8412099
:1095C00084F8423038BD00BFF01E012070B504465B
:1095D0000D46104E23689B699B0701D5002015E0BE
:1095E00029462046FFF7B8FF88B9D6F80C345B1B34
:1095F0000A2BEFD9636C84F8400043F020036364C6
:10960000202384F8413084F84200032070BD0120FB
:10961000FCE700BFF01E012070B504460D46104E59
:1096200023689B699B0601D5002015E0294620464A
:10963000FFF792FF88B9D6F80C345B1B0A2BEFD9E1
:10964000636C84F8400043F020036364202384F8B3
:10965000413084F84200032070BD0120FCE700BFC8
:10966000F01E012010B5044680214BF07DFB002147
:109670002046BDE810404BF077BB0449D1F8C02527
:10968000B1F8C4355069434053617047F01E012062
:10969000044BD3F8C025B3F8C43500B11B04936163
:1096A000704700BFF01E012000F01F024009012397
:1096B00002389340032816D8DFE800F0110C0207A7
:1096C000094A116B0B4313637047074A516B0B43F5
:1096D00053637047044A116C0B4313647047024A8A
:1096E000516C0B43536470470038024007EE900AF8
:1096F0009FED3E7AB1F5C87FDFED3D5AF8EE677A0F
:10970000DFED3C4ACBBF78234FF4967332226422BC
:1097100087EE275A1A44323B07EE902A07EE103A9A
:10972000B8EEE76ADFED347AF0EE086AB8EEC77A91
:10973000B1EE034AF6EE003A70B50124E5EE257A63
:10974000A5EE667AE5EE267A06EE901AF8EEE66A5F
:10975000C4EEA65AF7EE004A75EEE76A76EEE76ABF
:109760002646013407EE904AF8EEE75A65EE855A30
:10977000C6EE257A77EEE47AFCEEE77A17EE902AC9
:10978000D3B20F2B2ED8C7EE257AFCEEE77A17EE70
:10979000901ACBB20F2B25D8C6EEA57A77EEE47AD5
:1097A000C7EE845AFCEEE55A15EE903A581E85B283
:1097B000FF2D17D877EEA37AFCEEE77A17EE900A22
:1097C000C31A013B9BB2FF2B0CD843EA067012056B
:1097D00040EA052002F07F620B04104303F47F038C
:1097E000184370BD0F2CBBD10020FAE7286B6E4EDA
:1097F000000000000024744900002A4330B5ADF594
:10980000815D002314460A4681B00146CDE902334A
:109810000DF5815304AD68460193FD230095ADF825
:10982000083048F079FF009B022269462046CDE9C6
:10983000005324F0C3FF0DF5815D01B030BD00BFC2
:109840002DE9F047041E0D4612DB092C26DC0B46E1
:10985000814A82480021A0FB04605970C00800EBD7
:109860008000A4EB4000125C28461A70BDE8F08727
:1098700064422D23092C01F8013B24D8764A774B0A
:109880000020A3FB046348702846DB0803EB830336
:10989000A4EB4303D35C0B70BDE8F0876F4B632CE4
:1098A000A3FB04264FEAD60621DC0B466A4A6B4925
:1098B000A1FB0601C90801EB8101A6EB4101515C46
:1098C00003F8011BC5E7654A632CA2FB04364FEA87
:1098D000D60637D8604A614BA3FB0603DB0803EBCF
:1098E0008303A6EB4303D35C01F8013BC7E7A3FB6B
:1098F0000627B4F57A7F4FEAD7070DD20B46564AB2
:109900005649A1FB0701C90801EB8101A7EB410101
:10991000515C03F8011BCAE7A3FB072842F20F7250
:1099200094424FEAD80836D80B464B4A4B49A1FB24
:109930000801C90801EB8101A8EB4101515C03F862
:10994000011BDDE7A2FB0637B4F57A7F4FEAD707A4
:109950000CD2414A414BA3FB0703DB0803EB830313
:10996000A7EB4303D35C01F8013BB4E7A2FB073943
:1099700042F20F739C424FEAD90921D8364A374B3D
:10998000A3FB0903DB0803EB8303A9EB4303D35CCD
:1099900001F8013BDEE7A3FB0829314A94424FEA74
:1099A000D90921D80B462C4A2C49A1FB0901C90829
:1099B00001EB8101A9EB4101515C03F8011BB5E703
:1099C000A2FB093A264B9C424FEADA0A21D8224AE6
:1099D000224BA3FB0A03DB0803EB8303AAEB43033D
:1099E000D35C01F8013BCAE7A3FB09231D4A94425B
:1099F0004FEAD30A21D80B461849174AA1FB0A019E
:109A0000C90801EB8101AAEB4101515C03F8011B7C
:109A1000CAE7A2FB0A38134B9C424FEAD80813D876
:109A20000E4B0D4AA3FB0803DB0803EB8303A8EBF3
:109A30004303D35C01F8013BCAE70A22BAFBF2F008
:109A400048F02AFC0346D7E70A22B8FBF2F048F0B8
:109A500023FC0146E4E700BFBC960608CDCCCCCC85
:109A60009F8601003F420F002DE9F047002588B096
:109A700006460F461C46A8460392039B5A1C0392B7
:109A8000197800293AD0252905D0731C01D0304619
:109A9000B8470135F1E79A1CCDF810800392587849
:109AA0002D282FD1DA1C4FF0010A03929878302824
:109AB0002BD1039B4FF001095A1C03921878A0F197
:109AC0003003DBB2092B09D804AA03A9FEF7D6FAA2
:109AD000BAF1000F02D0049B5B4204936C2840F063
:109AE0008680039B5A1C03921A78642A45D019D8A1
:109AF000252A00F088800BD8002ABED1284608B05D
:109B0000BDE8F0874FF0000AD1E74FF00009D6E733
:109B1000582A38D0632AB0D1721CBAD054F8041B2A
:109B2000C9B2B4E7662A55D0A2F16E03D9B20A29A8
:109B3000A3D80A2BA1D801A151F823F0CD9B00088E
:109B40007B9A00087B9A00087B9A00087B9A0008A1
:109B5000B39B00087B9A0008699B00087B9A000869
:109B60007B9A0008879B000805A954F8040BFEF7B0
:109B700047FA05ABCDE900931FE005A954F8040BA3
:109B800048F0A2FBF5E7A2F1580005AB10214242D4
:109B9000424154F8040B48F0DDFBEAE7A0F158011C
:109BA00005AB54F8040B4A424A41102148F0D2FB5D
:109BB000DFE754F8043BCDE90083049B3A464FF0BD
:109BC000FF31304649F082F8054456E754F8043B2B
:109BD0001D6052E7073424F00704F4E8020150F056
:109BE000E5F800EE100A05A848F0EAFAC1E7662891
:109BF000F0D018D85828D1D00AD800283FF47EAF2A
:109C000025287FF43AAF731C3FF443AF25213EE78C
:109C1000632881D064287FF430AF05A954F8040B81
:109C200048F052FBA5E7A0F16E03DAB20A2A3FF62C
:109C300024AF0A2B3FF621AF01A252F823F000BF58
:109C4000CD9B00087B9A00087B9A00087B9A00084D
:109C50007B9A0008B39B00087B9A0008699B000868
:109C60007B9A00087B9A00089D9B00082DE9F84F1D
:109C700043689146844E88461A690746D0F80CA07E
:109C8000C2F303238149DAF8045056F8234014F54F
:109C9000803F75D18D4266D17D4B196941F4001129
:109CA0001961196921F400111961D2B2384634449E
:109CB00006EB8202D2F828B04DF010F80546504667
:109CC0004DF077FA0A23AAF81C30D7F80CA05046BA
:109CD0004DF06FFA6F4B03219AF91400CAF80C305B
:109CE000CAF81870FFF788FB9AF914004EF092FD3D
:109CF000FB6894F820105B685A58581822F45F32B9
:109D000022F4787242F4153242F040025A5042690D
:109D100042F0070242615A5822F0C0725A505A5813
:109D200022F4C0025A50C0F80C8085604268120CC0
:109D3000120442EA090242605A5822F0F05242EA02
:109D40000B025A507B689A795B7912F0040F3A68DB
:109D50001E44506896F8481000F092804DF050FD77
:109D60000120BDE8F88F4C4B9D429ED1A3F53053A6
:109D7000196941F480011961196921F4800193E79F
:109D800033198D4293F820002B5823F001032B50F8
:109D900012D1BCB9414B0021196059609960D9605A
:109DA0001961212159612B5823F0F0532B50002CBD
:109DB00042D13F23AB6078E7374B9D423AD12CB973
:109DC0001033E8E7012C05D1354BE4E7012C05D130
:109DD000344BE0E7022C05D1334BDCE7022C05D1F4
:109DE000324BD8E7032C05D1314BD4E7032C05D1F6
:109DF000304BD0E7042C05D12F4BCCE7042C05D1F8
:109E00002E4BC8E7052C05D12D4BC4E7052C05D1F9
:109E10002C4BC0E7062C07D12B4BBCE72B4B2C4916
:109E2000062C18BF0B46B6E72A4B2949072C18BF4A
:109E30000B46B0E7264BAEE7012C02D14FF474631A
:109E4000B8E7022C02D14FF47C13B3E7032C02D104
:109E50004FF07463AEE7042C02D13F23EB6024E79C
:109E6000052C02D14FF47463F8E7062C02D14FF4AD
:109E70007C13F3E7072C7FF418AF4FF07463EDE722
:109E80004DF0D6FD6CE700BF3802060800600240C6
:109E900000380240A35C05080064024010600240E4
:109EA0002860024028640240406002404064024052
:109EB0005860024058640240706002407064024082
:109EC0008860024088640240A0600240A0640240B2
:109ED000B8640240B86002400E48D0F8743810B53B
:109EE000ABB190F86C46D3F8042244B94FF4007338
:109EF000012100F25C604AF0E7FB204610BD4023E0
:109F0000012100F25C6000244AF0DEFBF5E7022448
:109F1000F3E700BFF01E01202DE9F0474FF0A0430A
:109F2000C44D00260321C5F89038042305F25C6275
:109F3000C14CC5F894384023C5F88C2C05F509624E
:109F4000C5F8A438022385F8491C88B0C5F8A8389C
:109F5000C5F89C38C5F8C068C5F8A068C5F8B068F1
:109F6000C5F8AC68C5F8BC68C5F8B468C5F88C28F5
:109F7000226BB24842F001022263226B02F001021E
:109F80000292029A4FF4C052CDE903230A23CDE98D
:109F9000056103A907934EF057FBD5F8BC38012B98
:109FA00008D14FF4007303A9A4480596CDE9033600
:109FB0004EF04AFB636B0621432043F0800363634A
:109FC000636B03F080030093009B636C43F4804356
:109FD0006364636C03F480430193019BFFF70CFA05
:109FE000974B0822D5F890489A60A368D5F8A068E6
:109FF00023F00103A360D5F8A838012B40F02A8193
:10A00000A36BD5F8C42823F48033012AA363E36843
:10A0100023F4840323F04003E360E36823F4401354
:10A02000E36003D1E36843F48013E36020464DF01E
:10A030004FFA012E07D1A36843F00603A360A3687B
:10A0400043F02003A360D5F8903832200124DA6869
:10A0500022F0C042DA60DA6842F08042DA604FF003
:10A0600027F9784B00211A46084682F83810D18724
:10A07000013182F839400F2982F83B00D064C2E9EF
:10A08000100002F11C02F0D10022D5F890481146D0
:10A0900083F8F82102F14000DA87013204EB8000F6
:10A0A00083F8F9110F2A83F8FB11C3F80C12C3E9E6
:10A0B000801103F11C034160EAD1A36BD5F8BC7891
:10A0C00043F40013D5F894A8D5F89C28D5F8A088B7
:10A0D000D5F8A818D5F8AC98A3635FB9A36B23F49F
:10A0E0000013A363236843F040032360236843F015
:10A0F000800323600023012904F50066C4F8003EB4
:10A10000D4F80038C4F80038D4F8003840F0AD80F6
:10A11000002A40F0B080C4F80038102120464DF0ED
:10A120005DFB10232361484B013B02D02269D2061C
:10A13000FAD400224FF0FF334FF090404FF0FF0C65
:10A14000326111467261B36104F51063F2619245A8
:10A1500040F09480002104F530634FF0904C4FF0B4
:10A16000FF0E08468A4240F097803369B8F1010F2C
:10A1700023F48073336108D1344B3363336B43F47E
:10A18000803343F003033363336B0023A3616FF029
:10A1900080436361B8F1000F03D1A36943F010035A
:10A1A000A361A2692A4B1343A361B9F1000F03D045
:10A1B000A36943F00803A361012F05D1A36943F00C
:10A1C000804343F00403A361D5F8B4280123012A96
:10A1D00085F8493CD5F890380ED1C5F8842C00227A
:10A1E00085F87C2C9A6942F000629A615A6D42F0BF
:10A1F000805242F003025A65D3F80428032042F04B
:10A200000202C3F804284FF053F8D5F890388022A2
:10A2100000205A625A6A42F480029A625A6A996A23
:10A2200002EB114242F40002C3F8042108B0BDE879
:10A23000F08700BFF01E01200038024000000240FD
:10A2400000E100E080270120410D030000018000B3
:10A2500000383C80E368204643F04003E3604DF063
:10A2600037F94FF48033A363E3E603293FF450AF9B
:10A2700043F003034FE743F001034CE7D3F800E05A
:10A28000BEF1000F06DA186019610132C3F808C088
:10A2900020335CE71960F7E7D3F800A0BAF1000FAC
:10A2A00007DAC3F800C018610131C3F808E02033B1
:10A2B00058E71860F7E70022013870B513460132FD
:10A2C000845C002CFAD1DBB20C4A01335B000B80BA
:10A2D00082F8903C032382F8913C022310F8015F3E
:10A2E00005B970BD591CD618023352FA81F186F8AF
:10A2F000905CDBB281F8904CF0E700BFF01E0120CB
:10A30000D0F82802120210B590F85D3200EBC304B9
:10A310000133DBB284F83C12C4F84022042B08BF9E
:10A32000002380F85D3210BD70B50B4D01244FF451
:10A3300006760020FFF7ACF955F8040B20B1012197
:10A34000C680047242F01AFA0134042CF4D10020C1
:10A35000BDE87040FFF79CB98402060811B9114BA3
:10A36000D3F8BC1D0B6B834216D90E4BD3F8BC3D02
:10A37000994202D20021084670470A6B904202D3EC
:10A380008A6B9042F7D94C39F2E70B6B984202D3B3
:10A390008B6B9842EFD94C310B68002BF5D11946E5
:10A3A000E9E700BFF01E01202DE9F84FCE012BD1C7
:10A3B0000346204A02267E2543F8082B4FF0FF3241
:10A3C000426018461C4F041D013D6FF0704AD7F8DB
:10A3D000C09D4FF0010B49460B6B06F10108B342DB
:10A3E00002D88B6BB34213D23046FFF7B7FF01465A
:10A3F00070B9494644F804BC464604346B1E2DB976
:10A40000C7F8C01DBDE8F88F8025DBE71D46E3E7F0
:10A410000B794A6B23B1964208D144F804ACEBE7C0
:10A420009642FAD002D944F8043CE5E744F8048C9B
:10A43000E2E700BFF8FFFF0FF01E012070B5114AE0
:10A440000C4690F910301421054601FB03235E6A87
:10A4500083689A0701D442F033FF21683046D4E97B
:10A4600001234CF063FEE1683046D4E904234CF04C
:10A470005DFEAB689B0702D4284642F017FF01201F
:10A4800070BD00BF000001207E4BB3FBF2F3994288
:10A490000DD300234FF07E52436002608360C3609F
:10A4A00003610023836143610362C361704707EE68
:10A4B000902A9FED757AF8EE676A07EE901AF8EE2B
:10A4C000677A66EE876A66EEA76AFDEEE67A17EEB1
:10A4D000903A2033402B00F2C880DFED6C7AF4EE26
:10A4E000E76AF0EE667AF1EE10FA0CDDDFED685AFD
:10A4F0009FED686AB0EE677A77EEE57AB4EEC67AD9
:10A50000F1EE10FAF6DC9FED647AF4EEC77AF1EE24
:10A5100010FA0CD5DFED5E5A9FED606AB0EE677AF7
:10A5200077EEA57AB4EEC67AF1EE10FAF6D49FED86
:10A530005C7AF4EEC77AF1EE10FA00F390809FEDAA
:10A54000597AF4EEC77AF1EE10FA03D59FED527AFC
:10A5500077EE677A27EEA76ADFED535ADFED534AAD
:10A56000B6EE007A9FED525AE6EE254ADFED515ADB
:10A5700027EE864AA6EE245AE6EE055AE4EE257A40
:10A5800027EE877A9FED466A76EE867AFDEEE75AE9
:10A5900015EE903A2033402B64D8F4EEC66AF1EE03
:10A5A00010FA0CDDDFED3A5A9FED3A6AF0EE676A79
:10A5B00077EEE57AF4EEC66AF1EE10FAF6DCDFED3E
:10A5C000366AF4EEE67AF1EE10FA0CD5DFED305A89
:10A5D0009FED326AF0EE676A77EEA57AF4EEC66A0E
:10A5E000F1EE10FAF6D4DFED2E6AF4EEE67AF1EE33
:10A5F00010FA3DDDDFED256A76EEE77A67EEA76AB1
:10A600009FED296A9FED295AF8EE004ADFED285A9E
:10A61000A6EE865A9FED276A27EEA64AE6EE855AF1
:10A62000A6EEA56AE4EE067A67EEA47AC7EE006AA3
:10A63000B7EE006A76EE865A76EE666A86EE257A80
:10A6400067EE277A80ED007A66EE876A80ED027AFF
:10A65000C0ED017AC0ED037AC0ED046A21E79FEDF9
:10A660000B7A75E7DFED147AE0E79FED137A89E75F
:10A67000DFED0C6AF4EEE67AF1EE10FABED5DFED0E
:10A68000066AB9E720A1070027D4D236DB0F49407C
:10A69000DB0FC940E4CB1641DB0F49C0E4CB16C148
:10A6A000DB0FC93FDB0FC9BF9A7C2E36FAAF4FB91B
:10A6B0003587083CA4AA2ABE000000002DE9F04717
:10A6C00090B00D460746904600213C2201A89946CD
:10A6D0001A9EDDE9184A55F00FFC344B8DF80450F2
:10A6E0000293CDF834A0002D55D0022D55D0032D66
:10A6F00055D0042D55D103232D4A02EB430393F883
:10A7000059308DF805302B4B0394D3F8082E06975B
:10A7100014440122CDE904468DF831201E46B8F1DB
:10A72000000F06D04A46414607A855F0A1F98DF81A
:10A73000309096F80EEE0023BEF1010F0E931FD855
:10A7400096F80DCE3C240DF1040A0EF1010E04FB27
:10A750000C64BCFA8CFC86F80EEE04F561644FEADA
:10A760005C1CBAE80F000FC4BAE80F000FC4BAE8C7
:10A770000F000FC49AE8070084E8070086F80DCEA2
:10A780003B6883B14B4642462946384610B0BDE887
:10A79000F04724F027BB2B46AEE70123ACE70223AA
:10A7A000AAE70023ADE710B0BDE8F087B82C012080
:10A7B00038020608F01E012070B51F4C04F58F53B7
:10A7C0001D789DB341F2E8160B68DFED1C6A012A83
:10A7D000A659A3EB060341F2EC1607EE103AA65970
:10A7E0004B68B8EEC77AA3EB060327EE267A07EE8E
:10A7F000903A04F68C63F8EEE77A80ED007A93EDF8
:10A80000D67A8B6827EE267A67EE877AC0ED017AD2
:10A8100007D107EE903AF8EEE77AC0ED027A2846C3
:10A8200070BD41F2F012A2589B1AF2E700230360B8
:10A8300043608360F3E700BFF01E01202C7D8E3F54
:10A84000204B70B503F58F5604460D4632782DED3A
:10A85000028B82B341F2E8129A58026041F2EC1284
:10A860009A58426041F2F0129A5803F68C6393EDC5
:10A87000D68A8260DFED148A95ED000A80EE280A00
:10A8800052F06EF8236895ED010A184428EE288AE4
:10A89000206080EE080A52F063F8636895ED020AC2
:10A8A0001844606052F05CF8A368BDEC028B184459
:10A8B000A060307870BDB7EE008A8260C0E90022E7
:10A8C000D8E700BFF01E01202C7D8E3F00230360DF
:10A8D000704700BF174B0021174A184870B403F5A2
:10A8E000EE641226002583F83017C3F8644703F599
:10A8F000E76142F6F824C3F85827114A83F838670D
:10A90000C3F854070120C3F87027C3F87427C3F8AD
:10A910007827C3F87C27C3F88027C3F88427C3F8B7
:10A920008827C3F88C27C3F89027C1E9024570BC7B
:10A93000704700BFE82F012051900208459002089F
:10A94000E003E003074B4FF47871074AC3F854273C
:10A95000D3F864379A1E223322F8021F9A42FBD1A1
:10A96000704700BFE82F01207DA50208F0B54FF425
:10A970007871244C1122244E4FF4787004F5F3635F
:10A98000C4F8D8174FF47871204D002784F8382781
:10A9900004F5E762C4F8546741F60B2685B0C4F8A5
:10A9A0005857C3E90001C3E90201C3E90401C3E93F
:10A9B0000601C3E90801C3E90A01C3E90C01C3E9BF
:10A9C0000E014020C2E9026726F0BAF8B8B194F847
:10A9D000E3270023032190F90400012A0C4A019186
:10A9E0004FF040010CBF08251D4600920295094A10
:10A9F00026F0DCF8C4F8FC07003818BF012005B0C9
:10AA0000F0BD00BFE82F012001990208ED9902086E
:10AA1000A068060019A10208642828BF642000EB82
:10AA2000800070B5450064240026B5FBF4F4E4B260
:10AA3000F3B29C4212D80A2C0BD01420B5FBF0F0D4
:10AA4000C4EB84156638C4EB85052844C0B242F0D7
:10AA500003FE0134E4B2092C05D970BD9F200136F4
:10AA600042F0FAFDE4E79A20F1E700BF2DE9F0415A
:10AA7000DFF898800027C8F80078002841D04FF010
:10AA8000007104464CF0D4FA0546002839D04CF049
:10AA9000E7FA0646002834D040F6C41308F604024C
:10AAA0002046A8F86038C8F8002841F0B1FE2A7A9C
:10AAB000022141F087FE144AB8F860483046D8F8C1
:10AAC0000058B2FBF4F42E60A1B24CF013FFC4F3B3
:10AAD0004F0128684CF074F928684CF0C7FF2B68C8
:10AAE000022201201B685B68196883F83D200A6810
:10AAF00002430A6083F83D0028684CF0EFF8A86034
:10AB00000760BDE8F08100BF40420F00E82F012040
:10AB100070B505460D4C0C2694F86238042B01D90B
:10AB2000002011E05A1C06FB034384F86228D3F886
:10AB30006428D107F0D51542EED093F9680826F0C5
:10AB400021F80028E8D0406870BD00BFE82F012040
:10AB500038B52DED088B70EE60AAD0ED019A037820
:10AB6000B0EE408AB0EE41BA04466AEEA99A0D46AC
:10AB7000B0EE619AF0EE42BAB0EE62AA002B5DD15F
:10AB800001F00103D0ED0C7A002B54D07AEEE77A75
:10AB9000F0EE6A0A87EE8B0AD4ED0A7AC4ED0C0A4D
:10ABA000F5EEC07AF1EE10FA62DCD4ED032A20EE65
:10ABB000220AD4ED057A60EE0A2A94ED0B7A28EE8B
:10ABC000278A78EE077A77EEA97A77EEA27AF4EE02
:10ABD000C97AF1EE10FA58D487FEEB0A15F0120F7D
:10ABE000C4ED0E9A84ED0D7AC4ED0F2A84ED108A1F
:10ABF00084ED110A1AD170EE677A94ED046AD4EDEF
:10AC0000026A6A0767EE867AEAEEA67AF0EE476A8B
:10AC1000EBEE276AF0EE667A18D5F0EEE66AB0EE53
:10AC2000C76AF4EEC66AF1EE10FA31D42B0713D4DA
:10AC3000BDEC088B38BD77EEE07AABE711F001038D
:10AC40004FF0000240FEAA7A02709DE72B07B0EE9B
:10AC5000667AC4ED0B6AEBD5B4EEC79AF1EE10FA42
:10AC600001DC8BFEC79A84ED0B9ABDEC088B38BDD6
:10AC7000D4ED038AF0EE670AB0EE4B1A04F1180027
:10AC800055F0CAFA28EE800A93E7B0EE490AA5E724
:10AC9000B0EE677AC4ED0B7AC8E7254B102030B5CB
:10ACA0001C7819460133A4F13002092A27D9002063
:10ACB0001F4A8B1A022B25DC002391422CD82E2C04
:10ACC00034D10131042400220D7802EB8202303DA0
:10ACD0005200092D92B202D82A44013192B2013CAD
:10ACE00014F0FF04F0D164214A43124901FB03230D
:10ACF0000622B3FBF2F3104A02FB003001E00138F8
:10AD0000CED130BD00EB800012F8013B400030385E
:10AD1000184400F0FF00CCE703EB830312F8015B5B
:10AD20005B00303B2B4403F0FF03C6E70022DAE769
:10AD30008C38012040420F008096980080EAE07332
:10AD4000A3EBE0738B420ADB00280ADD431A4FF4C1
:10AD5000FA72501A02FB03F393FBF0F070470020E5
:10AD60007047FDD000F5FA734FF4FA70411A00FBFA
:10AD700003F090FBF1F0A0F5FA7070479B1A00FB0E
:10AD800003F393FBF1F18818704700BF71EEC11A0D
:10AD900061EE801A81EEA00A30EE010A704700BF12
:10ADA000094BD3F8B408D3F8B828D3F8BC3882429A
:10ADB00002DB114602460846984204DD9A42B8BFBB
:10ADC0001A46104670477047E82F0120124A02F5D4
:10ADD0000C6030B419C88342D2F8CC18D2F8D0280D
:10ADE00002DB1D46034628468A4202DB15460A4618
:10ADF00029468842A8BF08469342B8BF1346A042DE
:10AE000002DC224604461046834203DAA342B8BF5E
:10AE10002346184630BC7047E82F01200B6810B459
:10AE200014681B1B036054684B681B1B5DF8044BC4
:10AE300043608B6892689B1A836070472DE9FF41DD
:10AE40001546804608463C2447F0C4FB4FF47A720E
:10AE5000002307460E464FF007F9B5F900304FF4CE
:10AE60007A72314603FB04043846002300274FF072
:10AE7000FBF84FF47A7396B201A8C3FB04673B4614
:10AE8000324647F02FFB3A4B93F8D638012B09D0C6
:10AE9000022B35D032463B46404647F023FB04B0F8
:10AEA000BDE8F0819DF80640E31E072BF2D8231F72
:10AEB000052B0DD92146BDF8040047F0C1FA9DF8D5
:10AEC000073098420ED0E11E18BF01210029E1D0C1
:10AED0002B883C332B80274BF6184FF0000343EBB5
:10AEE0000707D7E7032C03D19DF808100039EBE7DB
:10AEF0000A2CCFD19DF80810B1FA81F14909E5E794
:10AF00009DF80640E31E082BC4D8231F062BDFD96B
:10AF10002146BDF8040047F093FA032C12D10E2805
:10AF20000ADC9DF80730984208D19DF808100129E5
:10AF300094BF00210121C9E70738F0E7B4BF012120
:10AF40000021C3E70B2CA5D107280ADC9DF80730A8
:10AF5000984208D19DF8081001298CBF00210121D9
:10AF6000B4E70738F0E7CCBF01210021AEE700BF0E
:10AF7000E82F012080EE360030B5046885B0E46922
:10AF80002CB10DF10F050095A04705B030BD20464E
:10AF9000FBE708B506483CF0ABFB06483FF0E2F89B
:10AFA000054B93F8D82812B1012283F8D92808BD9F
:10AFB000919706089D970608E82F01202DE9F04F8C
:10AFC000064687B0174698460025DFF8A0B00491E2
:10AFD000002F07DBAF4205D00135042DF8D107B0B3
:10AFE000BDE8F08FFA23002403FB05F9049B03EB73
:10AFF000090A1D4B9944B8F1000F01DBA0452ED181
:10B0000039F814303AF81410C3F34410CA1A5142F4
:10B01000514113F4006F03F01F0214BF562348235D
:10B020000591CDE90203CDE900422B465A46304650
:10B030003DF076FB3AF81430059913F4006F03F0F5
:10B040001F02C3F3441014BF56234823CDE9004226
:10B05000CDE902035A462B4630463DF077FB0134DA
:10B060007D2CC8D1B8E700BFC2380120AA970608D6
:10B070002DE9F04741F2F4733E4C0F463E4AE15C45
:10B0800000263E4B3D46DFF8FC908AB0002908BF01
:10B090001A4641F2F57380463948E15604F68C644D
:10B0A0003CF08AFF002F63D095F800A094F8C833D5
:10B0B000D5F80CC05345D5E901E057D1D4F8CC33CD
:10B0C000734553D1D4F8D03383424FD1D4F8D4331D
:10B0D00063454BD12B691A46D4F8D833934245D1F6
:10B0E000D4F8DC136B6921F07F4123F07F43CB1A46
:10B0F00059425941AB7D4A4609910793B5F914303D
:10B100000693B5F912300593B5F91030CDF800A0CB
:10B11000CDE903C3CDE901E0334640463DF000FBF5
:10B12000099994F8DE334A46404618340793183597
:10B13000B4F9C4330693B4F9C2330593B4F9C033F8
:10B140000493D4F8BC330393D4F8B8330293D4F8FF
:10B15000B433019394F8B0330093334601363DF095
:10B16000F5FA3C2E9ED10AB0BDE8F0870021C1E778
:10B170003946D6E7F01E0120FBD00608C497060822
:10B18000C7970608D69706080C46054607B525F06A
:10B190005AFC204625F057FC0020FEF779FA284695
:10B1A00041F028FA98B10120FEF772FA284641F0E2
:10B1B0001BFA01462046019141F019FA0199002835
:10B1C000F8D0204641F019FA0020FEF761FA204637
:10B1D00041F010FA0028E2D00120FEF759FA20468B
:10B1E00041F002FA01462846019141F000FA019926
:10B1F0000028F8D0284641F000FACDE7F0B50C461B
:10B20000054689B014220021204654F075FE2A68B4
:10B2100004A80023C2F385511B4E054641FA03F7EB
:10B22000FF0702D59F5D00F8017B0133062BF5D1A6
:10B2300000231649C2F305360370C2F30320084405
:10B240006D3190F866008DF818000DF1190046FA7E
:10B2500003F7FF0702D55F5C00F8017B0133062B83
:10B26000F5D100230A490370C2F3834320460293B9
:10B2700006ABCDE9005302F00F03C2F3031247F00F
:10B280007DFA09B0F0BD00BF980206083802060832
:10B29000F4970608404A10B492F831301169023B25
:10B2A000D2E90540062B74D8DFE803F05A5C605001
:10B2B0000655040064424942404280EAE0739FED33
:10B2C000376AA3EBE07307EE103A84EAE473A3EB6A
:10B2D000E473B8EEC77A06EE903A81EAE17327EE9E
:10B2E000066AF8EEE66AA3EBE17307EE903AB4EE75
:10B2F000E66AF8EEE77AF1EE10FA04DDB4EEE76AFA
:10B30000F1EE10FA34DC9FED256A26EE866AB4EE83
:10B31000467AF1EE10FA04D5B4EE676AF1EE10FA4F
:10B320002DDC9FED1E6A67EE867AB4EE677AF1EE49
:10B3300010FA2BD5F4EE676AF1EE10FA26D5002943
:10B34000CCBF042005205DF8044B70474B424042BF
:10B3500021461C46B1E7634240420C461946ACE721
:10B360004942AAE74B4261421C46A6E76442A4E771
:10B3700000285DF8044BCCBF002001207047002C52
:10B380005DF8044BCCBF0220032070474FF0FF3024
:10B39000D9E72346E1E700BF00000020ABAA2A3F1F
:10B3A00037B5294C9FED297A94F8C22CD4F8E45C87
:10B3B00004EB4201013202F00F02B1F8C43CA1F8E3
:10B3C000C40C84F8C22CC31A94F8E5272B4407EE6A
:10B3D000902A94F8E627C4F8E43C1B09F8EEE77AD3
:10B3E000A4F8E83C67EE877AFDEEE77A17EE901A4C
:10B3F00007EE902AF8EEE77A67EE877AFDEEE77AB5
:10B4000017EE902A91420DDD9BB29A42D4BF9B1A4F
:10B410000023994216DBCB1A9BB2A4F8E83C0B46FA
:10B4200011461A4640F2FF350023B4F8E80C0095A7
:10B4300048F0CAFA2A46002148F0E2FAA4F8E80CDB
:10B4400003B030BD0023E8E7E82F012014AE23410C
:10B45000F8B5864CA36813F400352DED068B40F04B
:10B46000AF8004F29C51824E94ED3C8AD1ED007A7B
:10B47000D6F8A07DD4ED3D8A67EE883AD4ED3E4AF9
:10B4800094ED3B4A27EEA83A67EEA42AD4ED476A2A
:10B4900024EEA37AD6F8A42D67EE847A64EE235ABC
:10B4A000937AA2EE887A24EE276A5842E2EEA85AEE
:10B4B00005EE100AA4EEA26AB8EEC55A36EE877AF7
:10B4C000F2EE042AE8EE275AA3EE447AF0EE466A3A
:10B4D00025EE225AE3EE686AB0EE656AA7EEE87AD6
:10B4E000A3EE246AF0EE477AB0EE667AF4EEC57AFF
:10B4F000A8EE637AF1EE10FA07D406EE903AB8EEB1
:10B50000E65A25EE225A85FE675A84ED475AF2EE36
:10B51000045AD37A97ED375A5842D4EDD76A07EEDA
:10B52000900AE5EE066AF8EEE77A67EEA57AF4EEA1
:10B53000E76AF1EE10FA07D407EE903AF8EEE77AF0
:10B5400067EEA57AC7FEE67AC4EDD77A137BD5B944
:10B550005A42F2EE046A07EE902AF8EEE77A67EEB6
:10B56000A67AF4EEC77AF1EE10FA07DC07EE903A0D
:10B57000F8EEE77A67EEA67AC7FEC77AC1ED007AE1
:10B58000BDEC068BF8BD5A42D7ED365AD1ED006AB4
:10B59000B2EE046A07EE902AE5EE876AF8EEE77AE3
:10B5A00067EE867AB0EE667AF4EEE76AF1EE10FAAC
:10B5B000E4D407EE903AF8EEE77A67EE867ADBE7B6
:10B5C000D4ED3D8A94ED3C8A68EEA87A9FED297A05
:10B5D000E8EE087AF4EEC77AF1EE10FAD0D8D4F893
:10B5E000FC30B0EE409A224E9B0639D506F55363E7
:10B5F000D6F8A07D93ED05AAB0EEE00A48F0E0FA97
:10B600009FED1D7ADFED1D7AF0EE409A89FE479A94
:10B6100089FE279AB1EE499AB0EE490A48F048FBF4
:10B62000F0EE407AB0EE490AB0EE679A48F0C8FAF8
:10B630009FED136ADFED137AC9EE006A9FED127A6F
:10B64000DFED125A8AFE477A114987FE257A69EEA4
:10B65000A79A66EE866AC6EE877A67EEA97A0BE746
:10B66000D6F8A07D97ED35AAC6E700BF0000002000
:10B67000E82F0120CE8BD33E920A863F920A86BFE6
:10B680008F2A7544E12E65420080BB450000964339
:10B690009C0500202DE9F047084D95F859392DED0E
:10B6A000048B82B0062B00F20F84DFE813F08105D3
:10B6B0006905210409001F047604660500000020C6
:10B6C0007F4C042394ED8E7AD4ED907AD4ED926A77
:10B6D00067EE072A27EEA73A94ED947AD4ED967A8E
:10B6E00066EEA63AD4ED8D1A27EE074A94ED8F2A1E
:10B6F00067EEA74AD4ED986AE1EEA12A94ED9A7A12
:10B70000A2EE023AD4ED9C7A26EEA65A94ED911A56
:10B7100067EE075AD4ED931A27EEA76A94ED952A9F
:10B72000E1EE013AD4ED9E6AA1EEA14A94EDA07A31
:10B73000E2EE024AD4EDA27A66EEA66A94ED971A7A
:10B7400027EE077AD4ED991A67EEA77A94ED9B2A33
:10B75000A1EE015AE1EEA15A94ED9D1AA2EE026A01
:10B76000D4ED9F1A94EDA12AE1EE016AA1EEA17A2F
:10B77000E2EE027AB1EEE22AF1EEC32AB1EEE33A4A
:10B78000F1EEC43A84ED6D2AB1EEE44AC4ED6E2ABE
:10B79000F1EEC54A84ED6F3AB1EEE55AC4ED703A68
:10B7A000F1EEC65A84ED714AB1EEE66AC4ED724A12
:10B7B000F1EEC76A84ED735AB1EEE77AC4ED745ABC
:10B7C00084ED756AC4ED766A84ED777A94EDA47A97
:10B7D000D4EDA67A67EE075AD4EDA86A27EEA76AD9
:10B7E00094EDAA7AD4EDAC7A66EEA66AD4EDA34ABB
:10B7F00027EE077A94EDA55A67EEA77AE4EEA45AED
:10B8000094EDA74AA5EE056AD4EDA94A94EDAB5A8A
:10B81000E4EE046AA4EEA47A85F85939E5EE057AD7
:10B82000B1EEE55AF1EEC65AB1EEE66AF1EEC76A3C
:10B8300084ED785AB1EEE77AC4ED795A84ED7A6AEC
:10B84000C4ED7B6A84ED7C7A95F8F22A0F2A00F326
:10B850007785002302F16D019FED1A7A04EB8101D7
:10B860001E461846D1ED007A38B951ED016AF4EE62
:10B87000E67AF1EE10FA09DDD6B2B4EEE77A0120ED
:10B88000F1EE10FA02D5B0EE677AD3B2013204318C
:10B89000102AE7D104EB8302591C0F2BD2ED6D7AED
:10B8A00007EE101A06F1010267EEA76AB8EEC77A32
:10B8B00066EEA77A27EE277A00F06D8104E000BFDC
:10B8C000C00700200000000005EB83015E1C04EBB4
:10B8D000830001F5F861D0ED6E6A91ED6D6AF4EECA
:10B8E000C66AF1EE10FA40F1568166EE065A05EE90
:10B8F000106A0F2EB8EEC55A25EE866AA5EE067AB6
:10B9000077EE867A00F02D850146981C91ED6F6ADE
:10B91000B4EEE66AF1EE10FA40F13D8166EEA65A09
:10B9200005EE100A0F28B8EEC55A65EEA66AA5EE18
:10B93000267A77EEA67A00F01685D1ED706AD81CCB
:10B94000F4EEC66AF1EE10FA40F1258166EE065A71
:10B9500005EE100A0F28B8EEC55A25EE866AA5EE48
:10B96000067A77EE867A00F0008591ED716A181DEF
:10B97000B4EEE66AF1EE10FA40F10D8166EEA65AD9
:10B9800005EE100A0F28B8EEC55A65EEA66AA5EEB8
:10B99000267A77EEA67A00F0EA84D1ED726A581D15
:10B9A000F4EEC66AF1EE10FA40F1F58066EE065A42
:10B9B00005EE100A0F28B8EEC55A25EE866AA5EEE8
:10B9C000067A77EE867A00F0E68091ED736A981D2C
:10B9D000B4EEE66AF1EE10FA40F1DD8066EEA65AAA
:10B9E00005EE100A0F28B8EEC55A65EEA66AA5EE58
:10B9F000267A77EEA67A00F0CE80D1ED746AD81D53
:10BA0000F4EEC66AF1EE10FA40F1C58066EE065A11
:10BA100005EE100A0F28B8EEC55A25EE866AA5EE87
:10BA2000067A77EE867A00F0B68091ED756A03F1BA
:10BA30000800B4EEE66AF1EE10FA40F1AC8066EE72
:10BA4000A65A05EE100A0F28B8EEC55A65EEA66A8A
:10BA5000A5EE267A77EEA67A00F09D80D1ED766A83
:10BA600003F10900B4EEE66AF1EE10FA40F39380B8
:10BA700066EE065A05EE100A0F28B8EEC55A25EEF6
:10BA8000866AA6EE057A77EE867A00F0848091EDDC
:10BA9000776A03F10A00F4EEC66AF1EE10FA7ADD75
:10BAA00066EEA65A05EE100A0F28B8EEC55A65EEE6
:10BAB000A66AA6EE857A77EEA67A6CD0D1ED786A82
:10BAC00003F10B00B4EEE66AF1EE10FA63DD66EE08
:10BAD000065A05EE100A0F28B8EEC55A25EE866AFA
:10BAE000A6EE057A77EE867A55D091ED796A03F164
:10BAF0000C00F4EEC66AF1EE10FA4CDD66EEA65AC2
:10BB000005EE100A0F28B8EEC55A65EEA66AA6EE35
:10BB1000857A77EEA67A3ED0D1ED7A6A03F10D00F0
:10BB2000B4EEE66AF1EE10FA35DD66EE065A05EE81
:10BB3000100A0F28B8EEC55A25EE866AA6EE057AD9
:10BB400077EE867A27D091ED7B6A03F10E00F4EE52
:10BB5000C66AF1EE10FA1EDD66EEA65A05EE100A70
:10BB60000F28B8EEC55A65EEA66AA6EE857A77EE7E
:10BB7000A67A10D0D4ED7C6AF4EEC66AF1EE10FA23
:10BB800009D566EE066AF2EE0E5A26EE866AA6EE33
:10BB9000257A77EE867A934240F34F8105EB830155
:10BBA000581E04EB830601F5F861D6ED6C6A91ED41
:10BBB0006D6AF4EEC66AF1EE10FA40F13E81591C4E
:10BBC00066EE065A904205EE101A25EE866AB8EE29
:10BBD000C55A77EE867AA5EE067A40F32E8196ED69
:10BBE0006B6A991EB4EEE66AF1EE10FA40F1258117
:10BBF00066EEA65A914265EEA66A05EE903AF8EE18
:10BC0000E55A77EEA67AA5EEA67A40F31681374676
:10BC1000DE1ED7ED6A6AF4EEC66AF1EE10FA40F164
:10BC20000C8126EE065A05EE900A9642F8EEE55A89
:10BC300025EE066AA5EE867A77EE867A40F3FD80D9
:10BC400097ED696A181FB4EEE66AF1EE10FA40F15A
:10BC5000F48026EEA65A05EE901A9042F8EEE55AC8
:10BC600065EE266AA5EEA67A77EEA67A40F3E58021
:10BC7000D7ED686A591FF4EEC66AF1EE10FA40F18A
:10BC8000DC8026EE065A05EE906A9142F8EEE55AFF
:10BC900025EE066AA5EE867A77EE867A40F3CD80A9
:10BCA00097ED676A9E1FB4EEE66AF1EE10FA40F176
:10BCB000C48026EEA65A05EE900A9642F8EEE55AA2
:10BCC00065EE266AA5EEA67A77EEA67A40F3B580F1
:10BCD000D7ED666AD81FF4EEC66AF1EE10FA40F1AD
:10BCE000AC8026EE065A05EE901A9042F8EEE55A20
:10BCF00025EE066AA5EE867A77EE867A40F39D8079
:10BD000097ED656AA3F10801B4EEE66AF1EE10FA68
:10BD100040F1938026EEA65A05EE906A9142F8EE25
:10BD2000E55A65EE266AA5EEA67A77EEA67A40F386
:10BD30008480D7ED646AA3F10906F4EEC66AF1EED9
:10BD400010FA7AD526EE065A05EE900A9642F8EEDB
:10BD5000E55A25EE066AA5EE867A77EE867A6CDDE0
:10BD600097ED636AA3F10A00B4EEE66AF1EE10FA09
:10BD700063D526EEA65A05EE901A9042F8EEE55AE3
:10BD800065EE266AA5EEA67A77EEA67A55DDD7EDA2
:10BD9000626AA3F10B01F4EEC66AF1EE10FA4CD51B
:10BDA00026EE065A05EE906A9142F8EEE55A25EE27
:10BDB000066AA5EE867A77EE867A3EDD3E46A3F1E8
:10BDC0000C0796ED616AB4EEE66AF1EE10FA34D52E
:10BDD00026EEA65A05EE900A9742F8EEE55A65EE71
:10BDE000266AA5EEA67A77EEA67A26DDD6ED606AFB
:10BDF0000D3BF4EEC66AF1EE10FA1ED526EE065A99
:10BE000005EE901A9342F8EEE55A25EE066AA5EE85
:10BE1000867A77EE867A10DD94ED6E6AB4EEE66A85
:10BE2000F1EE10FA09D526EEA66AF0EE085A66EE93
:10BE3000266AA6EEA57A77EEA67AF5EEC07AF1EE3E
:10BE400010FA40F3728287EE278AD4EDCD7A95F806
:10BE50005AA9B7EE007A38EE478A28EE278AB5F855
:10BE6000F80A4DF059FC064618EE100A0F464DF040
:10BE700075FC804689463046394642464B464DF071
:10BE80004BFF08B946464F46394630464DF08EFFC7
:10BE900000EE100A0AEBCA0304EB830000F52D70D4
:10BEA00054F0AEF995F85A29BCEEC00A95F8593904
:10BEB00002F5C87205EB420210EE100AB2F8C01784
:10BEC000A2F8C007A2F8C6175A1CB44BA3FB021372
:10BED000D11A03EB51039B08C3EBC303D31A85F8B4
:10BEE000593902B0BDEC048BBDE8F087AC4CABE433
:10BEF000AC4CAB4EB0EE006AB5F85C19F6EE006AD9
:10BF0000D6ED6E7A3346D6ED6D5A013977EEA77AC3
:10BF1000D5F8702904EBC100B0EE664A1032B0EEDD
:10BF2000677A0838D5EE867AA5EE867A67EEA67A25
:10BF300027EE267AC6ED8E7A86ED8D7AD0ED036AED
:10BF40000139D0ED027A02F10802D3ED705AA0F166
:10BF50000800D3ED6F4A03F1080335EEE67A12EDDF
:10BF6000036A37EEE45A77EEA47A76EEA56A52EDCC
:10BF7000045AA6EE057AE5EE857AA5EEE67AE6EEB7
:10BF8000267A27EE047A67EE847A83ED8E7AC3ED03
:10BF90008D7AD3D195F8593996E795F85A2902F553
:10BFA000C87305EB4303B3F8C017B3F8C6378B4229
:10BFB00006D0012385F8ED2AA5F8EE1A85F8EC3AAB
:10BFC0000132794B0621A3FB020385F8591903F4CA
:10BFD000FF7101EB5303D21A85F85A2995F8D4372B
:10BFE0006F4C9E1DC3F1200306EB421213F0FC0FB1
:10BFF000C3F38501DFB204EB820600F0AD810131AD
:10C0000006F110022346080106EB011112ED026A47
:10C01000103293EDD17A103352ED076A52ED057A62
:10C0200026EE076AD3EDCC4A12ED087A8A4293EDE8
:10C03000CB5A66EEA46AD3EDCE5A27EE057A83ED8D
:10C040006B6A67EEA57AC3ED6A6A83ED697AC3ED20
:10C050006C7ADBD1554BA0F11001A3F5C4720E44EC
:10C060000B44114417F003021BD0D6ED007A013ABD
:10C0700093ED007A67EE877AC1ED007A11D0D6EDA4
:10C08000017A012A93ED017A67EE877AC1ED017A90
:10C0900007D0D6ED027A93ED027A67EE877AC1ED8A
:10C0A000027A95F8D467002E3FF474AFCF3795F835
:10C0B0005A39B00804EB870C04EBC313ACF5C47C0D
:10C0C00004EB870403F1180734D0013007F11003A3
:10C0D00004F110010CF110024FEA001E07EB0010F2
:10C0E00013ED046A103351ED047A103253ED066AF1
:10C0F000103126EE276A51ED067A13ED077A51EDDD
:10C10000075A66EEA76A53ED057A834202ED086A84
:10C1100027EE257A11ED056A42ED066A67EE867A0A
:10C1200002ED077A42ED057ADAD1AEF110031F4431
:10C130001C449C4416F003033FF42CAFD7ED007A67
:10C14000013B94ED007A67EE877ACCED007A3FF4FC
:10C1500021AFD7ED017A012B94ED017A67EE877A52
:10C16000CCED017A3FF416AFD7ED027A94ED027A66
:10C1700067EE877ACCED027A0CE795F85A292DE71D
:10C18000084CD5F864292046B5F868194DF0BCF87C
:10C1900095F85939013385F85939AAE62549922489
:10C1A000C007002074090020ABAAAAAAFC0A00203C
:10C1B000B5F85C396F4C5908D5F8602904EB830851
:10C1C000DB084FEA810004EB810E00F0A0805E1CCA
:10C1D00010300EF1100302F1100C0EEB061E40445D
:10C1E00008F11006A4F5DA7756ED047A103397EDCE
:10C1F0006D1A0CF1100C50ED041A103713ED086A8B
:10C2000071EE278A56ED032A31EE671A10ED032AE4
:10C2100036EE218A56ED013A71EEC61A13ED064A42
:10C22000103653ED054A103056ED066A53ED075AA5
:10C2300050ED067A10ED057A35EE820A97ED6B3AED
:10C2400072EE655A97ED6A5A74EE270A97ED6C6A9A
:10C2500077EEC47AC7ED698A35EE229A36EE232A44
:10C2600035EE625A73EE268A87ED6A9A74EE872A53
:10C2700087ED6C2A37EE647AC7ED6B8A73EE666AD7
:10C2800043ED052A36EE636A03ED088A03ED070ADB
:10C2900043ED060A73455CED074A1CED084A24EE9F
:10C2A000C12A24EE653A65EE242AA5EE042A61EE41
:10C2B000843AB0EE435AE1EE042AE5EEA43AA1EE48
:10C2C000A45A06ED072A46ED082A40ED073A00ED8C
:10C2D000085A5CED055A1CED065A26EE253A65EE25
:10C2E000E63A27EE854A65EE474AE6EE053AA6EEBF
:10C2F000853AA7EE254AE7EEA54A06ED063A46ED51
:10C30000053A00ED054A40ED064A7FF46DAF89B26B
:10C3100020460191FBF7D8FE01994046D5F86029E7
:10C32000FBF7D2FE95F85939CEE595F85AA905EBF9
:10C330004A03B3F8E63A08EE103AB8EE488A8EE5BA
:10C34000D4ED6D7A0122002327EEA77A67EE277AD3
:10C35000B0EE677AFFF7B8BA04F5DA7104F54F73F7
:10C3600080E60E2317E40D2315E40C2313E40B23BE
:10C3700011E400BF740900202DE9F04F2DED028B70
:10C3800087B0354D0446B0EE408A03901046D5F88C
:10C39000A89D0E4617469B464DF074F80146D9F805
:10C3A00000C04FF00008214489F80B6048463B4626
:10C3B00089F80A1032462146CDF80080DCF8144096
:10C3C0009DF848A09DF84C90A0479FED240A534645
:10C3D000424604A828EE000ACDF804B0CDF800804B
:10C3E000FDEEC07A17EE901A17F022F8D5F8AC3DA2
:10C3F00013B11B784B452BD0D5F8B83D13B11B7842
:10C400004B4525D0D5F8C43D13B11B784B451FD003
:10C41000D5F8D03DD3B11B78A3EB0909B9FA89F956
:10C420004FEA591938464DF02DF8039C04AB3246BB
:10C430000134CDF800902118D5F8A80DC9B240F00C
:10C4400061FE07B0BDEC028BBDE8F08F9946E9E7CD
:10C450004FF00109E6E700BFE82F01200000C842C5
:10C4600030B51C7814B1012C05D030BD9A7802701B
:10C47000DB780B70F9E7B3F9024052B1157B94FBFE
:10C48000F5F40470B3F904302AB1527B93FBF2F354
:10C49000EFE70C25F3E71222F8E730B51C7814B16A
:10C4A000012C0FD030BD9D7842B1147B6C430460E9
:10C4B000D8782AB1537B43430B60F3E70C24F5E7AC
:10C4C0001223F8E7B3F90220B3F904300260F3E76E
:10C4D00037B50C46054601920EF058F8019B2246EE
:10C4E000294640F0C3FE094A012092F9DC3D02EBE7
:10C4F000430101335BB281F8DD5D81F8DE4D352B00
:10C50000C8BF002382F8DC3D03B030BDE82F012016
:10C51000074910B491F84C2E002401F65561052A04
:10C520000460047128BF05225DF8044B53F0A0BAE3
:10C53000E82F0120074910B491F84C2E002401F691
:10C540005561032A0480847028BF03225DF8044BE0
:10C5500053F08EBAE82F012073B506460D4624F03D
:10C560001DFE044668B12A887420AB78ADF805201A
:10C5700004228DF804600DEB02018DF8073024F0E1
:10C58000B3FB204602B070BDF8B5204C1D270E4607
:10C59000054684F86C7F22F03DFF002022F0C0FEAB
:10C5A000082022F0BDFE0E2022F0BAFE384622F00E
:10C5B000B7FE042022F0B4FE042022F0B1FE0020D9
:10C5C00022F0AEFE302022F0ABFE002022F0A8FECA
:10C5D000304622F0A5FE002022F0A2FE22F0F8FE56
:10C5E00004F66D7022F002FE234670B194F86D2FB0
:10C5F00052B994F86E2F302A00D02AB993F86F2FD1
:10C6000012B993F8703F2B700120F8BDE82F01207C
:10C61000024610B5041D0020A24200D110BD12F840
:10C62000013B0821584010F0800F4FEA400318BF2B
:10C6300083F031030139D8B2F5D1EDE70F4B062273
:10C6400030B483F87F2F242203F6837183F8802F80
:10C6500083F8812F002283F8822F094A02F12404F3
:10C6600052F8045BA24241F8045BF9D1032283F83B
:10C67000850F30BC83F8862F17F01DBBE82F0120F3
:10C68000AB020608F0B50146134C00204FF00A0C2F
:10C69000264602460746A31893F8A43803B9F0BD0E
:10C6A0002E2B06D101320029F9D0A3180B4483F8B0
:10C6B000A478B3180CFB00F093F8A458A5F130034C
:10C6C000092B02D8A0F13003E8180E2A01D8013254
:10C6D000E1E70020E3E700BFE82F0120F8B5174CA1
:10C6E0000546D4F8C00F03791E3B012B02D9002167
:10C6F0003FF083FF124F0026AE4217DB41F21703D3
:10C70000E35C23B10021D4F8C00F3FF076FF0D4B5E
:10C71000D3F8082E0C4B43F8E02C002243F8DC2C15
:10C7200033F8D82C013223F8D82CF8BD17F8011BA8
:10C730000136D4F8C00F3FF060FFDDE7E82F01209D
:10C74000AC3F0120F01E0120E0400120036813F0FF
:10C75000400004D013F4057F14BF0120002070476F
:10C760002DE9F043264D85B0264C804605F1280979
:10C770000F461646C4F86457C4F86897FEF7E2F807
:10C78000214804F5E7614FF0120C42F6F82200232D
:10C79000C4F85807402084F838C7C1E9022324F0C0
:10C7A000CFF9044630B3FFF7D1FF98F800C0B0F1DD
:10C7B00000083F7894F904004B4614BF032201227D
:10C7C000BCF1000F009601924FF040010CBF07240E
:10C7D0000624012F0D4A05F1C8050CBF08260026C6
:10C7E0003443029424F0E2F9B8F1000F05D1003887
:10C7F00018BF012005B0BDE8F08345F8600CF6E7EE
:10C8000018400120E82F0120518D0208559E020892
:10C810000348044A00F2E37100F2E270A0E700BFAF
:10C82000E82F0120400D03000348044A00F2E371A1
:10C8300000F2E27094E700BFE82F0120A08601001B
:10C84000F0B5C14C85B054F85C6C14F8587C76B1E6
:10C850003046FFF77BFF50B15FBB54F8603C43B3F9
:10C86000BA4AC2F88030012304F8583C21E014F899
:10C87000570CFCF7E3F8B84205461AD0002800F040
:10C88000FD80B6B1B14D042196F90400022695F859
:10C890002930B3FA83F35B0902934FF41653CDE9C1
:10C8A000003600231A4624F081F9C5F880000028DC
:10C8B000D9D114F8560CFCF7C1F814F8553C0546CC
:10C8C00083421ED0002800F0E38054F8542CC2B1FB
:10C8D0009E4B032192F9040093F83030002B18BFCF
:10C8E000082302934FF49643CDE900310023082139
:10C8F0001A4624F05BF944F8500C10B1012304F8F7
:10C90000553CFCF7C7F954F84C6C14F8487C002EE1
:10C9100000F0C7803046FFF719FF002800F0C18003
:10C9200057B954F8603C3BB1884AC2F88830FBF7ED
:10C93000C3FE012304F8483C14F8450CFCF77EF8CC
:10C9400014F8443C054683423AD0002800F0EA80BF
:10C9500054F8403CD3B11A7A032193F90400002320
:10C96000002ACDE9011308BF0722794901EB8202B1
:10C970004FF48071D2F8982000921A4624F016F9EC
:10C9800044F83C0C10B1012304F8443C6F4A714B4D
:10C9900092F8581083F8761092F8591083F87710AF
:10C9A00092F85A1083F87A1092F85B1083F87E1090
:10C9B00092F85C1092F85D2083F87F1083F8802055
:10C9C00014F8380CFCF73AF814F8373C0546834263
:10C9D0002AD0002800F0AF804FF4FA710E2020F02A
:10C9E0004DF954F8343CFBB11A6802F41072B2F5F8
:10C9F000107F19D093F90400082203234FF400712B
:10CA0000CDE901324FF4E133009300231A4624F0BC
:10CA1000CDF844F8300C38B14C4B9867012304F83A
:10CA2000373C002304F82C3C14F82B5C25BB54F84D
:10CA3000283C0BB3032293F9040002954FF4002124
:10CA400001921A7A424B03EB82032A46D3F89830BC
:10CA500000932B4624F0AAF844F8240C60B13B4B19
:10CA600004F8185CD3F8083E03F51C53103344E96E
:10CA70000835012304F82B3C05B0F0BD334ED6F841
:10CA8000800023F0EBFFC6F8805004F8585C10E7F4
:10CA900054F8500C23F0E2FF44F8505C04F8555C65
:10CAA0002FE714F8470CFBF7C9FF874205463FF410
:10CAB00043AF68B3FBF700FE002E3FF43DAF317A81
:10CAC000224F19B302291DD197F833300BB9214BEE
:10CAD0003B660025022396F904002A46CDE901357C
:10CAE0001B4B03EB8101D1F89830102100932B46AA
:10CAF00024F05CF8C7F8880000283FF41DAF04F864
:10CB0000465C16E70129E4D1134BE1E70521E0E794
:10CB10000E4ED6F8880023F0A1FFC6F8885004F81E
:10CB2000485C09E754F83C0C23F098FF44F83C5C5F
:10CB300004F8445C44E754F8300C23F08FFF44F8C9
:10CB4000305C04F8375C6FE7E0400120F01E012004
:10CB500038020608000001200A00012013B5022354
:10CB6000074C019044F8143C4CF08CFC0199C2B283
:10CB700054F8240C02B0BDE810403FF041BD00BFA6
:10CB8000E0400120084B53F81C2C03F8100C052A38
:10CB900009D0042243F81C2C53F8142C022A02D08A
:10CBA000002243F8202C7047E0400120094A10B5CC
:10CBB00092F836306BB902F13604C15C222904D0F8
:10CBC000013304F8011B0F2BF7D11344002283F823
:10CBD000362010BDF01E012038B5214D044605F168
:10CBE00036004CF04FFC95F8363002462B2B09D11D
:10CBF00005381C4900230A46013115789DB9B3B99F
:10CC0000002024E0302B0BD195F83730A3F131010F
:10CC1000012903D9362B01D00138EAE7901EE8E755
:10CC2000382BE6D1F8E701330A46102BE3D123462F
:10CC300004F11005194601330C78222C02D0AB42C6
:10CC40001946F7D10B46CC1AA04201DC012038BDB1
:10CC500013F8015D12F8014DA542F4D0D0E700BFF2
:10CC6000F01E0120261F01202DE9F0430F46164635
:10CC70002DED028B83B020B10378303B012B40F2C5
:10CC80006481DFF82893DFEDC28A9FEDC28A3B788A
:10CC9000002B3ED036B1C04B3268D3F8083E9A42E2
:10CCA00040F2EB82BD4C14F80F5C002D40F078820E
:10CCB00014F80E0CBA4B03EB4003B3F8DC306BBB3B
:10CCC000012304F80E3CB74BDA6811061FD59A68A9
:10CCD000920740F1A582B04A4FF4F3601021B2F8F8
:10CCE000F8318DF80010302113FB00F312688DF835
:10CCF0000110082189FB0340DB1700248DF8021086
:10CD0000C3EB60136846CDF8033090473C70002EAB
:10CD1000BDD103B0BDEC028BBDE8F0830130B3F5AB
:10CD20008A6FC0B204F80E0C00F0688125D8B3F504
:10CD3000806F00F0FD8170D9B3F5866F00F0DF8160
:10CD40004BD9B3F5886FE2D1DFF84C8298F82D30DB
:10CD5000002BDCD0934A1024D8F800304021B2F9DF
:10CD60007C0B04228DF80040CDF8030000246846B7
:10CD70008DF801108DF802202CE0B3F5006F00F063
:10CD800017817ED9B3F5046F00F0E78061D9B3F560
:10CD9000116F00F0EC81B3F5206FB8D1814BD3F85F
:10CDA000FC309A06B3D5804910230A220024D1ED25
:10CDB000057A68468DF8003067EEA87A764B8DF8D4
:10CDC00002201B68FCEEE77A8DF8014017EE902AEE
:10CDD000CDF8032098473C7099E7B3F5826F00F0D7
:10CDE000B781B3F5846F92D16E4BDA6812068ED597
:10CDF0009A68950740F11C82606910212022042363
:10CE0000CDF80300002468468DF800108DF801204D
:10CE10008DF80230604B1B68DCE7B3F5007F00F053
:10CE20004B8150D9B3F5047F7FF471AF5D4BDB6864
:10CE30009D077FF56CAFDFF8608198F82E30002BEE
:10CE400000F0FE8114F80D4C002C40F019822046B1
:10CE5000FCE1B3F5026F50D1524BDA6811067FF551
:10CE600056AF9A68920740F100824B4B1020202168
:10CE70000822D3F8E8411B68CDF803408DF8000084
:10CE800074E7B3F5E26F00F0FD803ED9B3F5E46FCF
:10CE90007FF43DAFDFF8008198F82D30002B7FF450
:10CEA00036AF404B002493ED100A20EE080A4FF0F5
:10CEB00057FD1022D8F8003020218DF800200722DD
:10CEC000CDF8030053E7B3F5807F00F0BF80B3F5E2
:10CED000887F7FF41CAF334BD3F8FC305B077FF5C2
:10CEE00016AF06F08FFF90ED050A4FF039FD0024D4
:10CEF00010230122CDF803004AE1B3F5036F3FF49C
:10CF0000E2AE002E7FF4C3AE03E7B3F5C06F00F0CE
:10CF10008580B3F5E06F7FF4FAAE1F4D95F82D4094
:10CF2000002C7FF4F4AE1F4B93ED0E0A20EE080A9E
:10CF30004FF016FD1021CDF8030007222B6868463C
:10CF40008DF801408DF800107DE001300621FCF7DE
:10CF500003F8124B03F80F0C93E6124B10214022FA
:10CF60006846B3F9803B8DF80010082103EB83037A
:10CF70008DF80120084A5B008DF802101268CDF888
:10CF8000033090473D70002E7FF481AEC1E600BFB4
:10CF9000B80C473E0000C842F01E0120E0400120CE
:10CFA0003802060800000020183D01201F85EB51C3
:10CFB000B74BDA6815067FF5AAAE9A68940740F178
:10CFC0000E81C30740F11581DFF8C882D8F8E4214B
:10CFD00082EAE273002AA3EBE27303EB5303A9FB9B
:10CFE00003134FEAD303ACBF43F0004343F0404385
:10CFF000102100240822CDF803301DE0A44BDA688C
:10D0000015067FF584AE9A68940740F1ED80A14B38
:10D01000102050210422B3F9FA412CE7DFF8748282
:10D0200098F83130002B40F0C8801FF0D7F9002469
:10D030001021CDF803000622D8F8003068468DF89C
:10D0400000108DF801408DF80220C3E6904BD3F814
:10D05000FC3059077FF55BAE06F0D4FED0ED027AC6
:10D0600010220123FCEEE77A00248DF800206846A8
:10D070008DF8023017EE902A864B8DF80140CDF8DE
:10D080000320C8E6834D95F82D40002C7FF43FAE79
:10D090007F4B93ED0F0A20EE080A4FF061FC10233E
:10D0A0000721CDF803002A6868468DF800308DF816
:10D0B00001308DF8021028E6754BDB6818057FF506
:10D0C00026AE14F8043C002B3FF421AE7149102029
:10D0D000714AB1F9DA338DF80000684682FB0342E9
:10D0E000DB170968C3EBA20302228DF801501BB2C3
:10D0F0008DF80220CDF8033088473D7043E7654B3B
:10D1000093F82D20002A3FF402AE614A102430210A
:10D110001B68B2F97E0B04228DF80040CDF80300A5
:10D1200068468DF801108DF8022098473D702AE777
:10D13000FBF7AEFB10230422CDF803008DF800307E
:10D140006846544B8DF801501B688DF80220ECE7BF
:10D150004F4BDA6815067FF5DAAD9A6894075BD510
:10D16000FBF708FE10230422CDF803000FE0484B24
:10D17000DB6899077FF5CBAD14F80D4C1CB11FF09F
:10D180001FF9B0FBF4F410230922CDF8034000246A
:10D1900068468DF800308DF801308DF8022039E6B0
:10D1A0003E490620FBF740FE002304F80F0C3B70BD
:10D1B00003B0BDEC028BBDE8F083354AD26812059E
:10D1C0007FF5A5AD14F8042C002A3FF4A0AD012B87
:10D1D0005BD0236910210024CDF803302BE71B68B6
:10D1E00019077FF5EEAE92E51B6818077FF50FAFC4
:10D1F0008DE5DFF8A080D8F8E02182EAE273002A0A
:10D20000A3EBE27303EB5303A9FB03134FEAD3032E
:10D21000B8BF43F08043EBE61B681807A0D576E55E
:10D220001B681B077FF557AD002E7FF430AD70E50E
:10D230001B6818077FF5E0AD002E7FF428AD68E588
:10D2400014F8023C012B0CBFA089E08910230221B5
:10D25000CDF803000024D8F8002068468DF800308F
:10D260008DF801308DF802104FE51B681B077FF524
:10D27000FCAD002E7FF40BAD4BE500233B7097E730
:10D280001FF09EF8B0FBF4F0E0E7D8F8DC33A1E73C
:10D2900000000020F01E012067666666BD8500085C
:10D2A0002DE9F041424F82B097F89031012B02D026
:10D2B00002B0BDE8F08178680028F9D0D7F8083EC0
:10D2C00000223C4C0133164604F118083A4D8DF803
:10D2D000032001930AE01B2B84F8202044D00D2B5F
:10D2E00032D00123002685F88130786803685B68B6
:10D2F0009847002E43D1002841D078680368DB6846
:10D30000984783B27E2B43D095F88120EAB994F8F0
:10D310002060002EDFD17D2B45D094F824202AB147
:10D3200080F0200384F82460D8B20346E27F618C49
:10D33000062A0CD802F1010C0B442244002684F882
:10D340001FC010766384D0E762840026CDE70122F7
:10D350000B4485F88120C3F3072252FA83F3FF2B95
:10D360006384F2D14646C0E7786803685B689847F3
:10D370000028B6D1012306468DF80330B3E73046C6
:10D3800001AA0DF10301FFF76FFC02B0BDE8F081C7
:10D39000002301221E468DF80330E37785F88130A3
:10D3A00084F82020A1E7012384F824309DE700BF02
:10D3B000F01E0120E040012000000120054B93F801
:10D3C00090210AB10020704702221860012083F8E2
:10D3D00090217047F01E0120F0B5214C85B0214D01
:10D3E00042F6F8260027C4F86457FDF7ABFA12207E
:10D3F0001D491E4A04F5E76384F838074020C4F845
:10D400005817C4F85C27C3E9026723F099FB20B3DF
:10D4100094F8E317032394F8E227283D022990F9B2
:10D42000040001934FF4E13314BF08240024009357
:10D43000002340219A4208BF44F001040C4A0294A0
:10D4400023F0B4FBE864014620B10A48FFF7B6FFB9
:10D4500085F85000081E18BF012005B0F0BD00BFC0
:10D46000E82F01200841012059930208F1A9020880
:10D4700065970208C196020810B50D4C94F89031DA
:10D480000BB1002010BD202023F05AFBC4F89401FA
:10D4900058B1202123F04AFB0123064A84F8910168
:10D4A0001846226084F8903110BD012010BD00BFE5
:10D4B000F01E0120E9850008494A2DE9F043494C56
:10D4C000C7B092F85E2094F86030012A94F86E009C
:10D4D00094F876200CBF43F0020303F0FD03FE280E
:10D4E00094F86F7084F8603094F8753094F8728016
:10D4F00043EA022294F8773094F873E042EA034159
:10D5000094F874C0D3B235D03E46DFF8E490012ED3
:10D51000F7B205D9721E02EB09052D7B002D5CD0F8
:10D520008DF807300B1294F8712094F870508DF834
:10D5300008300B148DF800000DF10A008DF803205F
:10D54000324629498DF802508DF801708DF804801B
:10D550008DF805E08DF806C08DF8093052F088FA94
:10D5600006F10A0015F001064FF00905684418BFDE
:10D570000D2615E08DF800003A461B490DF1060016
:10D580008DF8017005258DF8028000268DF803E0E6
:10D590008DF804C08DF8053052F06AFAB81D684461
:10D5A000B4F86C3003701B0A437026B132460F4941
:10D5B000023052F05DFA3D446F4603353544002693
:10D5C000ADB2013617F8011B54F83C0C3FF015F8CA
:10D5D000B542F6DC47B0BDE8F083164697E700BFDA
:10D5E000F01E0120E040012058410120624201204C
:10D5F0004C4101200C4B034493F8743093B10B4A17
:10D60000024492F88F1151B9322B28BF32231846A9
:10D610003223B3FBF0F082F88F010120704701390B
:10D6200082F88F110020704700000120E0400120A7
:10D6300013B5044608460DF106012378627843EAE3
:10D640000223ADF80630FBF729F8BDF80630238039
:10D6500002B010BD2DE9F04FD3000668DFB00446DC
:10D660009B1989461546036002D343680133436022
:10D6700004F12803C6F3C5060C9304F140030D938F
:10D6800015B95FB0BDE8F08FC6F140070C9B494665
:10D69000AF4203EB060028BF2F463E443A4652F005
:10D6A000E7F9B944402EA5EB0705E9D10EAB2246B8
:10D6B000194692F82B000432043101F8040C92F858
:10D6C000260001F8030C92F8250001F8020C92F8EC
:10D6D000240001F8010C0D989042EAD1A2681EA91D
:10D6E00001920846E26802922269039262690492FA
:10D6F000A2690592E2690692226A0792626A08921A
:10D700000022013253F8046B102A40F8046BF8D160
:10D710008B6B0F4651F8046F01324FEAF340402AF9
:10D7200080EA734080EA93207B6A3F683B444FEA7B
:10D73000B64787EAF617184487EAD6063044C86326
:10D74000E6D1314B4FF00008019A0B93DDF820B081
:10D75000049B05980A93DDE90276DDE906EC0B9B54
:10D7600053F8041B0B934FEAF02383EAB01383EAC8
:10D77000706A1EAB53F8283008F101081944B8F15B
